{
	"contracts/VotingSystem.sol": {
		"VotingSystem": {
			"abi": [
				{
					"inputs": [],
					"stateMutability": "nonpayable",
					"type": "constructor"
				},
				{
					"inputs": [
						{
							"internalType": "string",
							"name": "topic",
							"type": "string"
						},
						{
							"internalType": "string",
							"name": "description",
							"type": "string"
						}
					],
					"name": "createTopic",
					"outputs": [
						{
							"internalType": "uint256",
							"name": "",
							"type": "uint256"
						}
					],
					"stateMutability": "nonpayable",
					"type": "function"
				}
			],
			"devdoc": {
				"custom:dev-run-script": "./scripts/deploy_with_ethers.ts",
				"details": "Voting Platform",
				"kind": "dev",
				"methods": {},
				"title": "Voting",
				"version": 1
			},
			"evm": {
				"assembly": "    /* \"contracts/VotingSystem.sol\":177:1071  contract VotingSystem {... */\n  mstore(0x40, 0x80)\n    /* \"contracts/VotingSystem.sol\":483:533  constructor() {... */\n  callvalue\n  dup1\n  iszero\n  tag_1\n  jumpi\n  0x00\n  dup1\n  revert\ntag_1:\n  pop\n    /* \"contracts/VotingSystem.sol\":516:526  msg.sender */\n  caller\n    /* \"contracts/VotingSystem.sol\":507:513  _admin */\n  0x00\n  dup1\n    /* \"contracts/VotingSystem.sol\":507:526  _admin = msg.sender */\n  0x0100\n  exp\n  dup2\n  sload\n  dup2\n  0xffffffffffffffffffffffffffffffffffffffff\n  mul\n  not\n  and\n  swap1\n  dup4\n  0xffffffffffffffffffffffffffffffffffffffff\n  and\n  mul\n  or\n  swap1\n  sstore\n  pop\n    /* \"contracts/VotingSystem.sol\":177:1071  contract VotingSystem {... */\n  dataSize(sub_0)\n  dup1\n  dataOffset(sub_0)\n  0x00\n  codecopy\n  0x00\n  return\nstop\n\nsub_0: assembly {\n        /* \"contracts/VotingSystem.sol\":177:1071  contract VotingSystem {... */\n      mstore(0x40, 0x80)\n      callvalue\n      dup1\n      iszero\n      tag_1\n      jumpi\n      0x00\n      dup1\n      revert\n    tag_1:\n      pop\n      jumpi(tag_2, lt(calldatasize, 0x04))\n      shr(0xe0, calldataload(0x00))\n      dup1\n      0x0743c33a\n      eq\n      tag_3\n      jumpi\n    tag_2:\n      0x00\n      dup1\n      revert\n        /* \"contracts/VotingSystem.sol\":539:885  function createTopic(string memory topic, string memory description)... */\n    tag_3:\n      tag_4\n      0x04\n      dup1\n      calldatasize\n      sub\n      dup2\n      add\n      swap1\n      tag_5\n      swap2\n      swap1\n      tag_6\n      jump\t// in\n    tag_5:\n      tag_7\n      jump\t// in\n    tag_4:\n      mload(0x40)\n      tag_8\n      swap2\n      swap1\n      tag_9\n      jump\t// in\n    tag_8:\n      mload(0x40)\n      dup1\n      swap2\n      sub\n      swap1\n      return\n    tag_7:\n        /* \"contracts/VotingSystem.sol\":642:649  uint256 */\n      0x00\n        /* \"contracts/VotingSystem.sol\":1007:1013  _admin */\n      dup1\n      0x00\n      swap1\n      sload\n      swap1\n      0x0100\n      exp\n      swap1\n      div\n      0xffffffffffffffffffffffffffffffffffffffff\n      and\n        /* \"contracts/VotingSystem.sol\":993:1013  msg.sender == _admin */\n      0xffffffffffffffffffffffffffffffffffffffff\n      and\n        /* \"contracts/VotingSystem.sol\":993:1003  msg.sender */\n      caller\n        /* \"contracts/VotingSystem.sol\":993:1013  msg.sender == _admin */\n      0xffffffffffffffffffffffffffffffffffffffff\n      and\n      eq\n        /* \"contracts/VotingSystem.sol\":985:1051  require(msg.sender == _admin, \"Only admin can call this function\") */\n      tag_11\n      jumpi\n      mload(0x40)\n      0x08c379a000000000000000000000000000000000000000000000000000000000\n      dup2\n      mstore\n      0x04\n      add\n      tag_12\n      swap1\n      tag_13\n      jump\t// in\n    tag_12:\n      mload(0x40)\n      dup1\n      swap2\n      sub\n      swap1\n      revert\n    tag_11:\n        /* \"contracts/VotingSystem.sol\":665:689  Voting storage newVoting */\n      0x00\n        /* \"contracts/VotingSystem.sol\":692:700  _votings */\n      0x02\n        /* \"contracts/VotingSystem.sol\":701:711  numVotings */\n      0x01\n      0x00\n        /* \"contracts/VotingSystem.sol\":701:713  numVotings++ */\n      dup2\n      sload\n      dup1\n      swap3\n      swap2\n      swap1\n      tag_15\n      swap1\n      tag_16\n      jump\t// in\n    tag_15:\n      swap2\n      swap1\n      pop\n      sstore\n        /* \"contracts/VotingSystem.sol\":692:714  _votings[numVotings++] */\n      dup2\n      sload\n      dup2\n      lt\n      tag_17\n      jumpi\n      tag_18\n      tag_19\n      jump\t// in\n    tag_18:\n    tag_17:\n      swap1\n      0x00\n      mstore\n      keccak256(0x00, 0x20)\n      swap1\n      0x04\n      mul\n      add\n        /* \"contracts/VotingSystem.sol\":665:714  Voting storage newVoting = _votings[numVotings++] */\n      swap1\n      pop\n        /* \"contracts/VotingSystem.sol\":742:747  topic */\n      dup4\n        /* \"contracts/VotingSystem.sol\":724:733  newVoting */\n      dup2\n        /* \"contracts/VotingSystem.sol\":724:739  newVoting.topic */\n      0x00\n      add\n        /* \"contracts/VotingSystem.sol\":724:747  newVoting.topic = topic */\n      swap1\n      dup2\n      tag_21\n      swap2\n      swap1\n      tag_22\n      jump\t// in\n    tag_21:\n      pop\n        /* \"contracts/VotingSystem.sol\":781:792  description */\n      dup3\n        /* \"contracts/VotingSystem.sol\":757:766  newVoting */\n      dup2\n        /* \"contracts/VotingSystem.sol\":757:778  newVoting.description */\n      0x01\n      add\n        /* \"contracts/VotingSystem.sol\":757:792  newVoting.description = description */\n      swap1\n      dup2\n      tag_23\n      swap2\n      swap1\n      tag_22\n      jump\t// in\n    tag_23:\n      pop\n        /* \"contracts/VotingSystem.sol\":821:826  false */\n      0x00\n        /* \"contracts/VotingSystem.sol\":802:811  newVoting */\n      dup2\n        /* \"contracts/VotingSystem.sol\":802:818  newVoting.isOpen */\n      0x03\n      add\n      0x00\n        /* \"contracts/VotingSystem.sol\":802:826  newVoting.isOpen = false */\n      0x0100\n      exp\n      dup2\n      sload\n      dup2\n      0xff\n      mul\n      not\n      and\n      swap1\n      dup4\n      iszero\n      iszero\n      mul\n      or\n      swap1\n      sstore\n      pop\n        /* \"contracts/VotingSystem.sol\":836:844  _votings */\n      0x02\n        /* \"contracts/VotingSystem.sol\":836:851  _votings.push() */\n      0x01\n      dup2\n      0x01\n      dup2\n      sload\n      add\n      dup1\n      dup3\n      sstore\n      dup1\n      swap2\n      pop\n      pop\n      sub\n      swap1\n      0x00\n      mstore\n      keccak256(0x00, 0x20)\n      swap1\n      pop\n      pop\n        /* \"contracts/VotingSystem.sol\":868:878  numVotings */\n      sload(0x01)\n        /* \"contracts/VotingSystem.sol\":861:878  return numVotings */\n      swap2\n      pop\n      pop\n        /* \"contracts/VotingSystem.sol\":539:885  function createTopic(string memory topic, string memory description)... */\n      swap3\n      swap2\n      pop\n      pop\n      jump\t// out\n        /* \"#utility.yul\":7:82   */\n    tag_25:\n        /* \"#utility.yul\":40:46   */\n      0x00\n        /* \"#utility.yul\":73:75   */\n      0x40\n        /* \"#utility.yul\":67:76   */\n      mload\n        /* \"#utility.yul\":57:76   */\n      swap1\n      pop\n        /* \"#utility.yul\":7:82   */\n      swap1\n      jump\t// out\n        /* \"#utility.yul\":88:205   */\n    tag_26:\n        /* \"#utility.yul\":197:198   */\n      0x00\n        /* \"#utility.yul\":194:195   */\n      dup1\n        /* \"#utility.yul\":187:199   */\n      revert\n        /* \"#utility.yul\":211:328   */\n    tag_27:\n        /* \"#utility.yul\":320:321   */\n      0x00\n        /* \"#utility.yul\":317:318   */\n      dup1\n        /* \"#utility.yul\":310:322   */\n      revert\n        /* \"#utility.yul\":334:451   */\n    tag_28:\n        /* \"#utility.yul\":443:444   */\n      0x00\n        /* \"#utility.yul\":440:441   */\n      dup1\n        /* \"#utility.yul\":433:445   */\n      revert\n        /* \"#utility.yul\":457:574   */\n    tag_29:\n        /* \"#utility.yul\":566:567   */\n      0x00\n        /* \"#utility.yul\":563:564   */\n      dup1\n        /* \"#utility.yul\":556:568   */\n      revert\n        /* \"#utility.yul\":580:682   */\n    tag_30:\n        /* \"#utility.yul\":621:627   */\n      0x00\n        /* \"#utility.yul\":672:674   */\n      0x1f\n        /* \"#utility.yul\":668:675   */\n      not\n        /* \"#utility.yul\":663:665   */\n      0x1f\n        /* \"#utility.yul\":656:661   */\n      dup4\n        /* \"#utility.yul\":652:666   */\n      add\n        /* \"#utility.yul\":648:676   */\n      and\n        /* \"#utility.yul\":638:676   */\n      swap1\n      pop\n        /* \"#utility.yul\":580:682   */\n      swap2\n      swap1\n      pop\n      jump\t// out\n        /* \"#utility.yul\":688:868   */\n    tag_31:\n        /* \"#utility.yul\":736:813   */\n      0x4e487b7100000000000000000000000000000000000000000000000000000000\n        /* \"#utility.yul\":733:734   */\n      0x00\n        /* \"#utility.yul\":726:814   */\n      mstore\n        /* \"#utility.yul\":833:837   */\n      0x41\n        /* \"#utility.yul\":830:831   */\n      0x04\n        /* \"#utility.yul\":823:838   */\n      mstore\n        /* \"#utility.yul\":857:861   */\n      0x24\n        /* \"#utility.yul\":854:855   */\n      0x00\n        /* \"#utility.yul\":847:862   */\n      revert\n        /* \"#utility.yul\":874:1155   */\n    tag_32:\n        /* \"#utility.yul\":957:984   */\n      tag_71\n        /* \"#utility.yul\":979:983   */\n      dup3\n        /* \"#utility.yul\":957:984   */\n      tag_30\n      jump\t// in\n    tag_71:\n        /* \"#utility.yul\":949:955   */\n      dup2\n        /* \"#utility.yul\":945:985   */\n      add\n        /* \"#utility.yul\":1087:1093   */\n      dup2\n        /* \"#utility.yul\":1075:1085   */\n      dup2\n        /* \"#utility.yul\":1072:1094   */\n      lt\n        /* \"#utility.yul\":1051:1069   */\n      0xffffffffffffffff\n        /* \"#utility.yul\":1039:1049   */\n      dup3\n        /* \"#utility.yul\":1036:1070   */\n      gt\n        /* \"#utility.yul\":1033:1095   */\n      or\n        /* \"#utility.yul\":1030:1118   */\n      iszero\n      tag_72\n      jumpi\n        /* \"#utility.yul\":1098:1116   */\n      tag_73\n      tag_31\n      jump\t// in\n    tag_73:\n        /* \"#utility.yul\":1030:1118   */\n    tag_72:\n        /* \"#utility.yul\":1138:1148   */\n      dup1\n        /* \"#utility.yul\":1134:1136   */\n      0x40\n        /* \"#utility.yul\":1127:1149   */\n      mstore\n        /* \"#utility.yul\":917:1155   */\n      pop\n        /* \"#utility.yul\":874:1155   */\n      pop\n      pop\n      jump\t// out\n        /* \"#utility.yul\":1161:1290   */\n    tag_33:\n        /* \"#utility.yul\":1195:1201   */\n      0x00\n        /* \"#utility.yul\":1222:1242   */\n      tag_75\n      tag_25\n      jump\t// in\n    tag_75:\n        /* \"#utility.yul\":1212:1242   */\n      swap1\n      pop\n        /* \"#utility.yul\":1251:1284   */\n      tag_76\n        /* \"#utility.yul\":1279:1283   */\n      dup3\n        /* \"#utility.yul\":1271:1277   */\n      dup3\n        /* \"#utility.yul\":1251:1284   */\n      tag_32\n      jump\t// in\n    tag_76:\n        /* \"#utility.yul\":1161:1290   */\n      swap2\n      swap1\n      pop\n      jump\t// out\n        /* \"#utility.yul\":1296:1604   */\n    tag_34:\n        /* \"#utility.yul\":1358:1362   */\n      0x00\n        /* \"#utility.yul\":1448:1466   */\n      0xffffffffffffffff\n        /* \"#utility.yul\":1440:1446   */\n      dup3\n        /* \"#utility.yul\":1437:1467   */\n      gt\n        /* \"#utility.yul\":1434:1490   */\n      iszero\n      tag_78\n      jumpi\n        /* \"#utility.yul\":1470:1488   */\n      tag_79\n      tag_31\n      jump\t// in\n    tag_79:\n        /* \"#utility.yul\":1434:1490   */\n    tag_78:\n        /* \"#utility.yul\":1508:1537   */\n      tag_80\n        /* \"#utility.yul\":1530:1536   */\n      dup3\n        /* \"#utility.yul\":1508:1537   */\n      tag_30\n      jump\t// in\n    tag_80:\n        /* \"#utility.yul\":1500:1537   */\n      swap1\n      pop\n        /* \"#utility.yul\":1592:1596   */\n      0x20\n        /* \"#utility.yul\":1586:1590   */\n      dup2\n        /* \"#utility.yul\":1582:1597   */\n      add\n        /* \"#utility.yul\":1574:1597   */\n      swap1\n      pop\n        /* \"#utility.yul\":1296:1604   */\n      swap2\n      swap1\n      pop\n      jump\t// out\n        /* \"#utility.yul\":1610:1756   */\n    tag_35:\n        /* \"#utility.yul\":1707:1713   */\n      dup3\n        /* \"#utility.yul\":1702:1705   */\n      dup2\n        /* \"#utility.yul\":1697:1700   */\n      dup4\n        /* \"#utility.yul\":1684:1714   */\n      calldatacopy\n        /* \"#utility.yul\":1748:1749   */\n      0x00\n        /* \"#utility.yul\":1739:1745   */\n      dup4\n        /* \"#utility.yul\":1734:1737   */\n      dup4\n        /* \"#utility.yul\":1730:1746   */\n      add\n        /* \"#utility.yul\":1723:1750   */\n      mstore\n        /* \"#utility.yul\":1610:1756   */\n      pop\n      pop\n      pop\n      jump\t// out\n        /* \"#utility.yul\":1762:2187   */\n    tag_36:\n        /* \"#utility.yul\":1840:1845   */\n      0x00\n        /* \"#utility.yul\":1865:1931   */\n      tag_83\n        /* \"#utility.yul\":1881:1930   */\n      tag_84\n        /* \"#utility.yul\":1923:1929   */\n      dup5\n        /* \"#utility.yul\":1881:1930   */\n      tag_34\n      jump\t// in\n    tag_84:\n        /* \"#utility.yul\":1865:1931   */\n      tag_33\n      jump\t// in\n    tag_83:\n        /* \"#utility.yul\":1856:1931   */\n      swap1\n      pop\n        /* \"#utility.yul\":1954:1960   */\n      dup3\n        /* \"#utility.yul\":1947:1952   */\n      dup2\n        /* \"#utility.yul\":1940:1961   */\n      mstore\n        /* \"#utility.yul\":1992:1996   */\n      0x20\n        /* \"#utility.yul\":1985:1990   */\n      dup2\n        /* \"#utility.yul\":1981:1997   */\n      add\n        /* \"#utility.yul\":2030:2033   */\n      dup5\n        /* \"#utility.yul\":2021:2027   */\n      dup5\n        /* \"#utility.yul\":2016:2019   */\n      dup5\n        /* \"#utility.yul\":2012:2028   */\n      add\n        /* \"#utility.yul\":2009:2034   */\n      gt\n        /* \"#utility.yul\":2006:2118   */\n      iszero\n      tag_85\n      jumpi\n        /* \"#utility.yul\":2037:2116   */\n      tag_86\n      tag_29\n      jump\t// in\n    tag_86:\n        /* \"#utility.yul\":2006:2118   */\n    tag_85:\n        /* \"#utility.yul\":2127:2181   */\n      tag_87\n        /* \"#utility.yul\":2174:2180   */\n      dup5\n        /* \"#utility.yul\":2169:2172   */\n      dup3\n        /* \"#utility.yul\":2164:2167   */\n      dup6\n        /* \"#utility.yul\":2127:2181   */\n      tag_35\n      jump\t// in\n    tag_87:\n        /* \"#utility.yul\":1846:2187   */\n      pop\n        /* \"#utility.yul\":1762:2187   */\n      swap4\n      swap3\n      pop\n      pop\n      pop\n      jump\t// out\n        /* \"#utility.yul\":2207:2547   */\n    tag_37:\n        /* \"#utility.yul\":2263:2268   */\n      0x00\n        /* \"#utility.yul\":2312:2315   */\n      dup3\n        /* \"#utility.yul\":2305:2309   */\n      0x1f\n        /* \"#utility.yul\":2297:2303   */\n      dup4\n        /* \"#utility.yul\":2293:2310   */\n      add\n        /* \"#utility.yul\":2289:2316   */\n      slt\n        /* \"#utility.yul\":2279:2401   */\n      tag_89\n      jumpi\n        /* \"#utility.yul\":2320:2399   */\n      tag_90\n      tag_28\n      jump\t// in\n    tag_90:\n        /* \"#utility.yul\":2279:2401   */\n    tag_89:\n        /* \"#utility.yul\":2437:2443   */\n      dup2\n        /* \"#utility.yul\":2424:2444   */\n      calldataload\n        /* \"#utility.yul\":2462:2541   */\n      tag_91\n        /* \"#utility.yul\":2537:2540   */\n      dup5\n        /* \"#utility.yul\":2529:2535   */\n      dup3\n        /* \"#utility.yul\":2522:2526   */\n      0x20\n        /* \"#utility.yul\":2514:2520   */\n      dup7\n        /* \"#utility.yul\":2510:2527   */\n      add\n        /* \"#utility.yul\":2462:2541   */\n      tag_36\n      jump\t// in\n    tag_91:\n        /* \"#utility.yul\":2453:2541   */\n      swap2\n      pop\n        /* \"#utility.yul\":2269:2547   */\n      pop\n        /* \"#utility.yul\":2207:2547   */\n      swap3\n      swap2\n      pop\n      pop\n      jump\t// out\n        /* \"#utility.yul\":2553:3387   */\n    tag_6:\n        /* \"#utility.yul\":2641:2647   */\n      0x00\n        /* \"#utility.yul\":2649:2655   */\n      dup1\n        /* \"#utility.yul\":2698:2700   */\n      0x40\n        /* \"#utility.yul\":2686:2695   */\n      dup4\n        /* \"#utility.yul\":2677:2684   */\n      dup6\n        /* \"#utility.yul\":2673:2696   */\n      sub\n        /* \"#utility.yul\":2669:2701   */\n      slt\n        /* \"#utility.yul\":2666:2785   */\n      iszero\n      tag_93\n      jumpi\n        /* \"#utility.yul\":2704:2783   */\n      tag_94\n      tag_26\n      jump\t// in\n    tag_94:\n        /* \"#utility.yul\":2666:2785   */\n    tag_93:\n        /* \"#utility.yul\":2852:2853   */\n      0x00\n        /* \"#utility.yul\":2841:2850   */\n      dup4\n        /* \"#utility.yul\":2837:2854   */\n      add\n        /* \"#utility.yul\":2824:2855   */\n      calldataload\n        /* \"#utility.yul\":2882:2900   */\n      0xffffffffffffffff\n        /* \"#utility.yul\":2874:2880   */\n      dup2\n        /* \"#utility.yul\":2871:2901   */\n      gt\n        /* \"#utility.yul\":2868:2985   */\n      iszero\n      tag_95\n      jumpi\n        /* \"#utility.yul\":2904:2983   */\n      tag_96\n      tag_27\n      jump\t// in\n    tag_96:\n        /* \"#utility.yul\":2868:2985   */\n    tag_95:\n        /* \"#utility.yul\":3009:3072   */\n      tag_97\n        /* \"#utility.yul\":3064:3071   */\n      dup6\n        /* \"#utility.yul\":3055:3061   */\n      dup3\n        /* \"#utility.yul\":3044:3053   */\n      dup7\n        /* \"#utility.yul\":3040:3062   */\n      add\n        /* \"#utility.yul\":3009:3072   */\n      tag_37\n      jump\t// in\n    tag_97:\n        /* \"#utility.yul\":2999:3072   */\n      swap3\n      pop\n        /* \"#utility.yul\":2795:3082   */\n      pop\n        /* \"#utility.yul\":3149:3151   */\n      0x20\n        /* \"#utility.yul\":3138:3147   */\n      dup4\n        /* \"#utility.yul\":3134:3152   */\n      add\n        /* \"#utility.yul\":3121:3153   */\n      calldataload\n        /* \"#utility.yul\":3180:3198   */\n      0xffffffffffffffff\n        /* \"#utility.yul\":3172:3178   */\n      dup2\n        /* \"#utility.yul\":3169:3199   */\n      gt\n        /* \"#utility.yul\":3166:3283   */\n      iszero\n      tag_98\n      jumpi\n        /* \"#utility.yul\":3202:3281   */\n      tag_99\n      tag_27\n      jump\t// in\n    tag_99:\n        /* \"#utility.yul\":3166:3283   */\n    tag_98:\n        /* \"#utility.yul\":3307:3370   */\n      tag_100\n        /* \"#utility.yul\":3362:3369   */\n      dup6\n        /* \"#utility.yul\":3353:3359   */\n      dup3\n        /* \"#utility.yul\":3342:3351   */\n      dup7\n        /* \"#utility.yul\":3338:3360   */\n      add\n        /* \"#utility.yul\":3307:3370   */\n      tag_37\n      jump\t// in\n    tag_100:\n        /* \"#utility.yul\":3297:3370   */\n      swap2\n      pop\n        /* \"#utility.yul\":3092:3380   */\n      pop\n        /* \"#utility.yul\":2553:3387   */\n      swap3\n      pop\n      swap3\n      swap1\n      pop\n      jump\t// out\n        /* \"#utility.yul\":3393:3470   */\n    tag_38:\n        /* \"#utility.yul\":3430:3437   */\n      0x00\n        /* \"#utility.yul\":3459:3464   */\n      dup2\n        /* \"#utility.yul\":3448:3464   */\n      swap1\n      pop\n        /* \"#utility.yul\":3393:3470   */\n      swap2\n      swap1\n      pop\n      jump\t// out\n        /* \"#utility.yul\":3476:3594   */\n    tag_39:\n        /* \"#utility.yul\":3563:3587   */\n      tag_103\n        /* \"#utility.yul\":3581:3586   */\n      dup2\n        /* \"#utility.yul\":3563:3587   */\n      tag_38\n      jump\t// in\n    tag_103:\n        /* \"#utility.yul\":3558:3561   */\n      dup3\n        /* \"#utility.yul\":3551:3588   */\n      mstore\n        /* \"#utility.yul\":3476:3594   */\n      pop\n      pop\n      jump\t// out\n        /* \"#utility.yul\":3600:3822   */\n    tag_9:\n        /* \"#utility.yul\":3693:3697   */\n      0x00\n        /* \"#utility.yul\":3731:3733   */\n      0x20\n        /* \"#utility.yul\":3720:3729   */\n      dup3\n        /* \"#utility.yul\":3716:3734   */\n      add\n        /* \"#utility.yul\":3708:3734   */\n      swap1\n      pop\n        /* \"#utility.yul\":3744:3815   */\n      tag_105\n        /* \"#utility.yul\":3812:3813   */\n      0x00\n        /* \"#utility.yul\":3801:3810   */\n      dup4\n        /* \"#utility.yul\":3797:3814   */\n      add\n        /* \"#utility.yul\":3788:3794   */\n      dup5\n        /* \"#utility.yul\":3744:3815   */\n      tag_39\n      jump\t// in\n    tag_105:\n        /* \"#utility.yul\":3600:3822   */\n      swap3\n      swap2\n      pop\n      pop\n      jump\t// out\n        /* \"#utility.yul\":3828:3997   */\n    tag_40:\n        /* \"#utility.yul\":3912:3923   */\n      0x00\n        /* \"#utility.yul\":3946:3952   */\n      dup3\n        /* \"#utility.yul\":3941:3944   */\n      dup3\n        /* \"#utility.yul\":3934:3953   */\n      mstore\n        /* \"#utility.yul\":3986:3990   */\n      0x20\n        /* \"#utility.yul\":3981:3984   */\n      dup3\n        /* \"#utility.yul\":3977:3991   */\n      add\n        /* \"#utility.yul\":3962:3991   */\n      swap1\n      pop\n        /* \"#utility.yul\":3828:3997   */\n      swap3\n      swap2\n      pop\n      pop\n      jump\t// out\n        /* \"#utility.yul\":4003:4223   */\n    tag_41:\n        /* \"#utility.yul\":4143:4177   */\n      0x4f6e6c792061646d696e2063616e2063616c6c20746869732066756e6374696f\n        /* \"#utility.yul\":4139:4140   */\n      0x00\n        /* \"#utility.yul\":4131:4137   */\n      dup3\n        /* \"#utility.yul\":4127:4141   */\n      add\n        /* \"#utility.yul\":4120:4178   */\n      mstore\n        /* \"#utility.yul\":4212:4215   */\n      0x6e00000000000000000000000000000000000000000000000000000000000000\n        /* \"#utility.yul\":4207:4209   */\n      0x20\n        /* \"#utility.yul\":4199:4205   */\n      dup3\n        /* \"#utility.yul\":4195:4210   */\n      add\n        /* \"#utility.yul\":4188:4216   */\n      mstore\n        /* \"#utility.yul\":4003:4223   */\n      pop\n      jump\t// out\n        /* \"#utility.yul\":4229:4595   */\n    tag_42:\n        /* \"#utility.yul\":4371:4374   */\n      0x00\n        /* \"#utility.yul\":4392:4459   */\n      tag_109\n        /* \"#utility.yul\":4456:4458   */\n      0x21\n        /* \"#utility.yul\":4451:4454   */\n      dup4\n        /* \"#utility.yul\":4392:4459   */\n      tag_40\n      jump\t// in\n    tag_109:\n        /* \"#utility.yul\":4385:4459   */\n      swap2\n      pop\n        /* \"#utility.yul\":4468:4561   */\n      tag_110\n        /* \"#utility.yul\":4557:4560   */\n      dup3\n        /* \"#utility.yul\":4468:4561   */\n      tag_41\n      jump\t// in\n    tag_110:\n        /* \"#utility.yul\":4586:4588   */\n      0x40\n        /* \"#utility.yul\":4581:4584   */\n      dup3\n        /* \"#utility.yul\":4577:4589   */\n      add\n        /* \"#utility.yul\":4570:4589   */\n      swap1\n      pop\n        /* \"#utility.yul\":4229:4595   */\n      swap2\n      swap1\n      pop\n      jump\t// out\n        /* \"#utility.yul\":4601:5020   */\n    tag_13:\n        /* \"#utility.yul\":4767:4771   */\n      0x00\n        /* \"#utility.yul\":4805:4807   */\n      0x20\n        /* \"#utility.yul\":4794:4803   */\n      dup3\n        /* \"#utility.yul\":4790:4808   */\n      add\n        /* \"#utility.yul\":4782:4808   */\n      swap1\n      pop\n        /* \"#utility.yul\":4854:4863   */\n      dup2\n        /* \"#utility.yul\":4848:4852   */\n      dup2\n        /* \"#utility.yul\":4844:4864   */\n      sub\n        /* \"#utility.yul\":4840:4841   */\n      0x00\n        /* \"#utility.yul\":4829:4838   */\n      dup4\n        /* \"#utility.yul\":4825:4842   */\n      add\n        /* \"#utility.yul\":4818:4865   */\n      mstore\n        /* \"#utility.yul\":4882:5013   */\n      tag_112\n        /* \"#utility.yul\":5008:5012   */\n      dup2\n        /* \"#utility.yul\":4882:5013   */\n      tag_42\n      jump\t// in\n    tag_112:\n        /* \"#utility.yul\":4874:5013   */\n      swap1\n      pop\n        /* \"#utility.yul\":4601:5020   */\n      swap2\n      swap1\n      pop\n      jump\t// out\n        /* \"#utility.yul\":5026:5206   */\n    tag_43:\n        /* \"#utility.yul\":5074:5151   */\n      0x4e487b7100000000000000000000000000000000000000000000000000000000\n        /* \"#utility.yul\":5071:5072   */\n      0x00\n        /* \"#utility.yul\":5064:5152   */\n      mstore\n        /* \"#utility.yul\":5171:5175   */\n      0x11\n        /* \"#utility.yul\":5168:5169   */\n      0x04\n        /* \"#utility.yul\":5161:5176   */\n      mstore\n        /* \"#utility.yul\":5195:5199   */\n      0x24\n        /* \"#utility.yul\":5192:5193   */\n      0x00\n        /* \"#utility.yul\":5185:5200   */\n      revert\n        /* \"#utility.yul\":5212:5445   */\n    tag_16:\n        /* \"#utility.yul\":5251:5254   */\n      0x00\n        /* \"#utility.yul\":5274:5298   */\n      tag_115\n        /* \"#utility.yul\":5292:5297   */\n      dup3\n        /* \"#utility.yul\":5274:5298   */\n      tag_38\n      jump\t// in\n    tag_115:\n        /* \"#utility.yul\":5265:5298   */\n      swap2\n      pop\n        /* \"#utility.yul\":5320:5386   */\n      0xffffffffffffffffffffffffffffffffffffffffffffffffffffffffffffffff\n        /* \"#utility.yul\":5313:5318   */\n      dup3\n        /* \"#utility.yul\":5310:5387   */\n      sub\n        /* \"#utility.yul\":5307:5410   */\n      tag_116\n      jumpi\n        /* \"#utility.yul\":5390:5408   */\n      tag_117\n      tag_43\n      jump\t// in\n    tag_117:\n        /* \"#utility.yul\":5307:5410   */\n    tag_116:\n        /* \"#utility.yul\":5437:5438   */\n      0x01\n        /* \"#utility.yul\":5430:5435   */\n      dup3\n        /* \"#utility.yul\":5426:5439   */\n      add\n        /* \"#utility.yul\":5419:5439   */\n      swap1\n      pop\n        /* \"#utility.yul\":5212:5445   */\n      swap2\n      swap1\n      pop\n      jump\t// out\n        /* \"#utility.yul\":5451:5631   */\n    tag_19:\n        /* \"#utility.yul\":5499:5576   */\n      0x4e487b7100000000000000000000000000000000000000000000000000000000\n        /* \"#utility.yul\":5496:5497   */\n      0x00\n        /* \"#utility.yul\":5489:5577   */\n      mstore\n        /* \"#utility.yul\":5596:5600   */\n      0x32\n        /* \"#utility.yul\":5593:5594   */\n      0x04\n        /* \"#utility.yul\":5586:5601   */\n      mstore\n        /* \"#utility.yul\":5620:5624   */\n      0x24\n        /* \"#utility.yul\":5617:5618   */\n      0x00\n        /* \"#utility.yul\":5610:5625   */\n      revert\n        /* \"#utility.yul\":5637:5736   */\n    tag_44:\n        /* \"#utility.yul\":5689:5695   */\n      0x00\n        /* \"#utility.yul\":5723:5728   */\n      dup2\n        /* \"#utility.yul\":5717:5729   */\n      mload\n        /* \"#utility.yul\":5707:5729   */\n      swap1\n      pop\n        /* \"#utility.yul\":5637:5736   */\n      swap2\n      swap1\n      pop\n      jump\t// out\n        /* \"#utility.yul\":5742:5922   */\n    tag_45:\n        /* \"#utility.yul\":5790:5867   */\n      0x4e487b7100000000000000000000000000000000000000000000000000000000\n        /* \"#utility.yul\":5787:5788   */\n      0x00\n        /* \"#utility.yul\":5780:5868   */\n      mstore\n        /* \"#utility.yul\":5887:5891   */\n      0x22\n        /* \"#utility.yul\":5884:5885   */\n      0x04\n        /* \"#utility.yul\":5877:5892   */\n      mstore\n        /* \"#utility.yul\":5911:5915   */\n      0x24\n        /* \"#utility.yul\":5908:5909   */\n      0x00\n        /* \"#utility.yul\":5901:5916   */\n      revert\n        /* \"#utility.yul\":5928:6248   */\n    tag_46:\n        /* \"#utility.yul\":5972:5978   */\n      0x00\n        /* \"#utility.yul\":6009:6010   */\n      0x02\n        /* \"#utility.yul\":6003:6007   */\n      dup3\n        /* \"#utility.yul\":5999:6011   */\n      div\n        /* \"#utility.yul\":5989:6011   */\n      swap1\n      pop\n        /* \"#utility.yul\":6056:6057   */\n      0x01\n        /* \"#utility.yul\":6050:6054   */\n      dup3\n        /* \"#utility.yul\":6046:6058   */\n      and\n        /* \"#utility.yul\":6077:6095   */\n      dup1\n        /* \"#utility.yul\":6067:6148   */\n      tag_122\n      jumpi\n        /* \"#utility.yul\":6133:6137   */\n      0x7f\n        /* \"#utility.yul\":6125:6131   */\n      dup3\n        /* \"#utility.yul\":6121:6138   */\n      and\n        /* \"#utility.yul\":6111:6138   */\n      swap2\n      pop\n        /* \"#utility.yul\":6067:6148   */\n    tag_122:\n        /* \"#utility.yul\":6195:6197   */\n      0x20\n        /* \"#utility.yul\":6187:6193   */\n      dup3\n        /* \"#utility.yul\":6184:6198   */\n      lt\n        /* \"#utility.yul\":6164:6182   */\n      dup2\n        /* \"#utility.yul\":6161:6199   */\n      sub\n        /* \"#utility.yul\":6158:6242   */\n      tag_123\n      jumpi\n        /* \"#utility.yul\":6214:6232   */\n      tag_124\n      tag_45\n      jump\t// in\n    tag_124:\n        /* \"#utility.yul\":6158:6242   */\n    tag_123:\n        /* \"#utility.yul\":5979:6248   */\n      pop\n        /* \"#utility.yul\":5928:6248   */\n      swap2\n      swap1\n      pop\n      jump\t// out\n        /* \"#utility.yul\":6254:6395   */\n    tag_47:\n        /* \"#utility.yul\":6303:6307   */\n      0x00\n        /* \"#utility.yul\":6326:6329   */\n      dup2\n        /* \"#utility.yul\":6318:6329   */\n      swap1\n      pop\n        /* \"#utility.yul\":6349:6352   */\n      dup2\n        /* \"#utility.yul\":6346:6347   */\n      0x00\n        /* \"#utility.yul\":6339:6353   */\n      mstore\n        /* \"#utility.yul\":6383:6387   */\n      0x20\n        /* \"#utility.yul\":6380:6381   */\n      0x00\n        /* \"#utility.yul\":6370:6388   */\n      keccak256\n        /* \"#utility.yul\":6362:6388   */\n      swap1\n      pop\n        /* \"#utility.yul\":6254:6395   */\n      swap2\n      swap1\n      pop\n      jump\t// out\n        /* \"#utility.yul\":6401:6494   */\n    tag_48:\n        /* \"#utility.yul\":6438:6444   */\n      0x00\n        /* \"#utility.yul\":6485:6487   */\n      0x20\n        /* \"#utility.yul\":6480:6482   */\n      0x1f\n        /* \"#utility.yul\":6473:6478   */\n      dup4\n        /* \"#utility.yul\":6469:6483   */\n      add\n        /* \"#utility.yul\":6465:6488   */\n      div\n        /* \"#utility.yul\":6455:6488   */\n      swap1\n      pop\n        /* \"#utility.yul\":6401:6494   */\n      swap2\n      swap1\n      pop\n      jump\t// out\n        /* \"#utility.yul\":6500:6607   */\n    tag_49:\n        /* \"#utility.yul\":6544:6552   */\n      0x00\n        /* \"#utility.yul\":6594:6599   */\n      dup3\n        /* \"#utility.yul\":6588:6592   */\n      dup3\n        /* \"#utility.yul\":6584:6600   */\n      shl\n        /* \"#utility.yul\":6563:6600   */\n      swap1\n      pop\n        /* \"#utility.yul\":6500:6607   */\n      swap3\n      swap2\n      pop\n      pop\n      jump\t// out\n        /* \"#utility.yul\":6613:7006   */\n    tag_50:\n        /* \"#utility.yul\":6682:6688   */\n      0x00\n        /* \"#utility.yul\":6732:6733   */\n      0x08\n        /* \"#utility.yul\":6720:6730   */\n      dup4\n        /* \"#utility.yul\":6716:6734   */\n      mul\n        /* \"#utility.yul\":6755:6852   */\n      tag_129\n        /* \"#utility.yul\":6785:6851   */\n      0xffffffffffffffffffffffffffffffffffffffffffffffffffffffffffffffff\n        /* \"#utility.yul\":6774:6783   */\n      dup3\n        /* \"#utility.yul\":6755:6852   */\n      tag_49\n      jump\t// in\n    tag_129:\n        /* \"#utility.yul\":6873:6912   */\n      tag_130\n        /* \"#utility.yul\":6903:6911   */\n      dup7\n        /* \"#utility.yul\":6892:6901   */\n      dup4\n        /* \"#utility.yul\":6873:6912   */\n      tag_49\n      jump\t// in\n    tag_130:\n        /* \"#utility.yul\":6861:6912   */\n      swap6\n      pop\n        /* \"#utility.yul\":6945:6949   */\n      dup1\n        /* \"#utility.yul\":6941:6950   */\n      not\n        /* \"#utility.yul\":6934:6939   */\n      dup5\n        /* \"#utility.yul\":6930:6951   */\n      and\n        /* \"#utility.yul\":6921:6951   */\n      swap4\n      pop\n        /* \"#utility.yul\":6994:6998   */\n      dup1\n        /* \"#utility.yul\":6984:6992   */\n      dup7\n        /* \"#utility.yul\":6980:6999   */\n      and\n        /* \"#utility.yul\":6973:6978   */\n      dup5\n        /* \"#utility.yul\":6970:7000   */\n      or\n        /* \"#utility.yul\":6960:7000   */\n      swap3\n      pop\n        /* \"#utility.yul\":6689:7006   */\n      pop\n      pop\n        /* \"#utility.yul\":6613:7006   */\n      swap4\n      swap3\n      pop\n      pop\n      pop\n      jump\t// out\n        /* \"#utility.yul\":7012:7072   */\n    tag_51:\n        /* \"#utility.yul\":7040:7043   */\n      0x00\n        /* \"#utility.yul\":7061:7066   */\n      dup2\n        /* \"#utility.yul\":7054:7066   */\n      swap1\n      pop\n        /* \"#utility.yul\":7012:7072   */\n      swap2\n      swap1\n      pop\n      jump\t// out\n        /* \"#utility.yul\":7078:7220   */\n    tag_52:\n        /* \"#utility.yul\":7128:7137   */\n      0x00\n        /* \"#utility.yul\":7161:7214   */\n      tag_133\n        /* \"#utility.yul\":7179:7213   */\n      tag_134\n        /* \"#utility.yul\":7188:7212   */\n      tag_135\n        /* \"#utility.yul\":7206:7211   */\n      dup5\n        /* \"#utility.yul\":7188:7212   */\n      tag_38\n      jump\t// in\n    tag_135:\n        /* \"#utility.yul\":7179:7213   */\n      tag_51\n      jump\t// in\n    tag_134:\n        /* \"#utility.yul\":7161:7214   */\n      tag_38\n      jump\t// in\n    tag_133:\n        /* \"#utility.yul\":7148:7214   */\n      swap1\n      pop\n        /* \"#utility.yul\":7078:7220   */\n      swap2\n      swap1\n      pop\n      jump\t// out\n        /* \"#utility.yul\":7226:7301   */\n    tag_53:\n        /* \"#utility.yul\":7269:7272   */\n      0x00\n        /* \"#utility.yul\":7290:7295   */\n      dup2\n        /* \"#utility.yul\":7283:7295   */\n      swap1\n      pop\n        /* \"#utility.yul\":7226:7301   */\n      swap2\n      swap1\n      pop\n      jump\t// out\n        /* \"#utility.yul\":7307:7576   */\n    tag_54:\n        /* \"#utility.yul\":7417:7456   */\n      tag_138\n        /* \"#utility.yul\":7448:7455   */\n      dup4\n        /* \"#utility.yul\":7417:7456   */\n      tag_52\n      jump\t// in\n    tag_138:\n        /* \"#utility.yul\":7478:7569   */\n      tag_139\n        /* \"#utility.yul\":7527:7568   */\n      tag_140\n        /* \"#utility.yul\":7551:7567   */\n      dup3\n        /* \"#utility.yul\":7527:7568   */\n      tag_53\n      jump\t// in\n    tag_140:\n        /* \"#utility.yul\":7519:7525   */\n      dup5\n        /* \"#utility.yul\":7512:7516   */\n      dup5\n        /* \"#utility.yul\":7506:7517   */\n      sload\n        /* \"#utility.yul\":7478:7569   */\n      tag_50\n      jump\t// in\n    tag_139:\n        /* \"#utility.yul\":7472:7476   */\n      dup3\n        /* \"#utility.yul\":7465:7570   */\n      sstore\n        /* \"#utility.yul\":7383:7576   */\n      pop\n        /* \"#utility.yul\":7307:7576   */\n      pop\n      pop\n      pop\n      jump\t// out\n        /* \"#utility.yul\":7582:7655   */\n    tag_55:\n        /* \"#utility.yul\":7627:7630   */\n      0x00\n        /* \"#utility.yul\":7582:7655   */\n      swap1\n      jump\t// out\n        /* \"#utility.yul\":7661:7850   */\n    tag_56:\n        /* \"#utility.yul\":7738:7770   */\n      tag_143\n      tag_55\n      jump\t// in\n    tag_143:\n        /* \"#utility.yul\":7779:7844   */\n      tag_144\n        /* \"#utility.yul\":7837:7843   */\n      dup2\n        /* \"#utility.yul\":7829:7835   */\n      dup5\n        /* \"#utility.yul\":7823:7827   */\n      dup5\n        /* \"#utility.yul\":7779:7844   */\n      tag_54\n      jump\t// in\n    tag_144:\n        /* \"#utility.yul\":7714:7850   */\n      pop\n        /* \"#utility.yul\":7661:7850   */\n      pop\n      pop\n      jump\t// out\n        /* \"#utility.yul\":7856:8042   */\n    tag_57:\n        /* \"#utility.yul\":7916:8036   */\n    tag_146:\n        /* \"#utility.yul\":7933:7936   */\n      dup2\n        /* \"#utility.yul\":7926:7931   */\n      dup2\n        /* \"#utility.yul\":7923:7937   */\n      lt\n        /* \"#utility.yul\":7916:8036   */\n      iszero\n      tag_148\n      jumpi\n        /* \"#utility.yul\":7987:8026   */\n      tag_149\n        /* \"#utility.yul\":8024:8025   */\n      0x00\n        /* \"#utility.yul\":8017:8022   */\n      dup3\n        /* \"#utility.yul\":7987:8026   */\n      tag_56\n      jump\t// in\n    tag_149:\n        /* \"#utility.yul\":7960:7961   */\n      0x01\n        /* \"#utility.yul\":7953:7958   */\n      dup2\n        /* \"#utility.yul\":7949:7962   */\n      add\n        /* \"#utility.yul\":7940:7962   */\n      swap1\n      pop\n        /* \"#utility.yul\":7916:8036   */\n      jump(tag_146)\n    tag_148:\n        /* \"#utility.yul\":7856:8042   */\n      pop\n      pop\n      jump\t// out\n        /* \"#utility.yul\":8048:8591   */\n    tag_58:\n        /* \"#utility.yul\":8149:8151   */\n      0x1f\n        /* \"#utility.yul\":8144:8147   */\n      dup3\n        /* \"#utility.yul\":8141:8152   */\n      gt\n        /* \"#utility.yul\":8138:8584   */\n      iszero\n      tag_151\n      jumpi\n        /* \"#utility.yul\":8183:8221   */\n      tag_152\n        /* \"#utility.yul\":8215:8220   */\n      dup2\n        /* \"#utility.yul\":8183:8221   */\n      tag_47\n      jump\t// in\n    tag_152:\n        /* \"#utility.yul\":8267:8296   */\n      tag_153\n        /* \"#utility.yul\":8285:8295   */\n      dup5\n        /* \"#utility.yul\":8267:8296   */\n      tag_48\n      jump\t// in\n    tag_153:\n        /* \"#utility.yul\":8257:8265   */\n      dup2\n        /* \"#utility.yul\":8253:8297   */\n      add\n        /* \"#utility.yul\":8450:8452   */\n      0x20\n        /* \"#utility.yul\":8438:8448   */\n      dup6\n        /* \"#utility.yul\":8435:8453   */\n      lt\n        /* \"#utility.yul\":8432:8481   */\n      iszero\n      tag_154\n      jumpi\n        /* \"#utility.yul\":8471:8479   */\n      dup2\n        /* \"#utility.yul\":8456:8479   */\n      swap1\n      pop\n        /* \"#utility.yul\":8432:8481   */\n    tag_154:\n        /* \"#utility.yul\":8494:8574   */\n      tag_155\n        /* \"#utility.yul\":8550:8572   */\n      tag_156\n        /* \"#utility.yul\":8568:8571   */\n      dup6\n        /* \"#utility.yul\":8550:8572   */\n      tag_48\n      jump\t// in\n    tag_156:\n        /* \"#utility.yul\":8540:8548   */\n      dup4\n        /* \"#utility.yul\":8536:8573   */\n      add\n        /* \"#utility.yul\":8523:8534   */\n      dup3\n        /* \"#utility.yul\":8494:8574   */\n      tag_57\n      jump\t// in\n    tag_155:\n        /* \"#utility.yul\":8153:8584   */\n      pop\n      pop\n        /* \"#utility.yul\":8138:8584   */\n    tag_151:\n        /* \"#utility.yul\":8048:8591   */\n      pop\n      pop\n      pop\n      jump\t// out\n        /* \"#utility.yul\":8597:8714   */\n    tag_59:\n        /* \"#utility.yul\":8651:8659   */\n      0x00\n        /* \"#utility.yul\":8701:8706   */\n      dup3\n        /* \"#utility.yul\":8695:8699   */\n      dup3\n        /* \"#utility.yul\":8691:8707   */\n      shr\n        /* \"#utility.yul\":8670:8707   */\n      swap1\n      pop\n        /* \"#utility.yul\":8597:8714   */\n      swap3\n      swap2\n      pop\n      pop\n      jump\t// out\n        /* \"#utility.yul\":8720:8889   */\n    tag_60:\n        /* \"#utility.yul\":8764:8770   */\n      0x00\n        /* \"#utility.yul\":8797:8848   */\n      tag_159\n        /* \"#utility.yul\":8845:8846   */\n      0x00\n        /* \"#utility.yul\":8841:8847   */\n      not\n        /* \"#utility.yul\":8833:8838   */\n      dup5\n        /* \"#utility.yul\":8830:8831   */\n      0x08\n        /* \"#utility.yul\":8826:8839   */\n      mul\n        /* \"#utility.yul\":8797:8848   */\n      tag_59\n      jump\t// in\n    tag_159:\n        /* \"#utility.yul\":8793:8849   */\n      not\n        /* \"#utility.yul\":8878:8882   */\n      dup1\n        /* \"#utility.yul\":8872:8876   */\n      dup4\n        /* \"#utility.yul\":8868:8883   */\n      and\n        /* \"#utility.yul\":8858:8883   */\n      swap2\n      pop\n        /* \"#utility.yul\":8771:8889   */\n      pop\n        /* \"#utility.yul\":8720:8889   */\n      swap3\n      swap2\n      pop\n      pop\n      jump\t// out\n        /* \"#utility.yul\":8894:9189   */\n    tag_61:\n        /* \"#utility.yul\":8970:8974   */\n      0x00\n        /* \"#utility.yul\":9116:9145   */\n      tag_161\n        /* \"#utility.yul\":9141:9144   */\n      dup4\n        /* \"#utility.yul\":9135:9139   */\n      dup4\n        /* \"#utility.yul\":9116:9145   */\n      tag_60\n      jump\t// in\n    tag_161:\n        /* \"#utility.yul\":9108:9145   */\n      swap2\n      pop\n        /* \"#utility.yul\":9178:9181   */\n      dup3\n        /* \"#utility.yul\":9175:9176   */\n      0x02\n        /* \"#utility.yul\":9171:9182   */\n      mul\n        /* \"#utility.yul\":9165:9169   */\n      dup3\n        /* \"#utility.yul\":9162:9183   */\n      or\n        /* \"#utility.yul\":9154:9183   */\n      swap1\n      pop\n        /* \"#utility.yul\":8894:9189   */\n      swap3\n      swap2\n      pop\n      pop\n      jump\t// out\n        /* \"#utility.yul\":9194:10589   */\n    tag_22:\n        /* \"#utility.yul\":9311:9348   */\n      tag_163\n        /* \"#utility.yul\":9344:9347   */\n      dup3\n        /* \"#utility.yul\":9311:9348   */\n      tag_44\n      jump\t// in\n    tag_163:\n        /* \"#utility.yul\":9413:9431   */\n      0xffffffffffffffff\n        /* \"#utility.yul\":9405:9411   */\n      dup2\n        /* \"#utility.yul\":9402:9432   */\n      gt\n        /* \"#utility.yul\":9399:9455   */\n      iszero\n      tag_164\n      jumpi\n        /* \"#utility.yul\":9435:9453   */\n      tag_165\n      tag_31\n      jump\t// in\n    tag_165:\n        /* \"#utility.yul\":9399:9455   */\n    tag_164:\n        /* \"#utility.yul\":9479:9517   */\n      tag_166\n        /* \"#utility.yul\":9511:9515   */\n      dup3\n        /* \"#utility.yul\":9505:9516   */\n      sload\n        /* \"#utility.yul\":9479:9517   */\n      tag_46\n      jump\t// in\n    tag_166:\n        /* \"#utility.yul\":9564:9631   */\n      tag_167\n        /* \"#utility.yul\":9624:9630   */\n      dup3\n        /* \"#utility.yul\":9616:9622   */\n      dup3\n        /* \"#utility.yul\":9610:9614   */\n      dup6\n        /* \"#utility.yul\":9564:9631   */\n      tag_58\n      jump\t// in\n    tag_167:\n        /* \"#utility.yul\":9658:9659   */\n      0x00\n        /* \"#utility.yul\":9682:9686   */\n      0x20\n        /* \"#utility.yul\":9669:9686   */\n      swap1\n      pop\n        /* \"#utility.yul\":9714:9716   */\n      0x1f\n        /* \"#utility.yul\":9706:9712   */\n      dup4\n        /* \"#utility.yul\":9703:9717   */\n      gt\n        /* \"#utility.yul\":9731:9732   */\n      0x01\n        /* \"#utility.yul\":9726:10344   */\n      dup2\n      eq\n      tag_169\n      jumpi\n        /* \"#utility.yul\":10388:10389   */\n      0x00\n        /* \"#utility.yul\":10405:10411   */\n      dup5\n        /* \"#utility.yul\":10402:10479   */\n      iszero\n      tag_170\n      jumpi\n        /* \"#utility.yul\":10454:10463   */\n      dup3\n        /* \"#utility.yul\":10449:10452   */\n      dup8\n        /* \"#utility.yul\":10445:10464   */\n      add\n        /* \"#utility.yul\":10439:10465   */\n      mload\n        /* \"#utility.yul\":10430:10465   */\n      swap1\n      pop\n        /* \"#utility.yul\":10402:10479   */\n    tag_170:\n        /* \"#utility.yul\":10505:10572   */\n      tag_171\n        /* \"#utility.yul\":10565:10571   */\n      dup6\n        /* \"#utility.yul\":10558:10563   */\n      dup3\n        /* \"#utility.yul\":10505:10572   */\n      tag_61\n      jump\t// in\n    tag_171:\n        /* \"#utility.yul\":10499:10503   */\n      dup7\n        /* \"#utility.yul\":10492:10573   */\n      sstore\n        /* \"#utility.yul\":10361:10583   */\n      pop\n        /* \"#utility.yul\":9696:10583   */\n      jump(tag_168)\n        /* \"#utility.yul\":9726:10344   */\n    tag_169:\n        /* \"#utility.yul\":9778:9782   */\n      0x1f\n        /* \"#utility.yul\":9774:9783   */\n      not\n        /* \"#utility.yul\":9766:9772   */\n      dup5\n        /* \"#utility.yul\":9762:9784   */\n      and\n        /* \"#utility.yul\":9812:9849   */\n      tag_172\n        /* \"#utility.yul\":9844:9848   */\n      dup7\n        /* \"#utility.yul\":9812:9849   */\n      tag_47\n      jump\t// in\n    tag_172:\n        /* \"#utility.yul\":9871:9872   */\n      0x00\n        /* \"#utility.yul\":9885:10093   */\n    tag_173:\n        /* \"#utility.yul\":9899:9906   */\n      dup3\n        /* \"#utility.yul\":9896:9897   */\n      dup2\n        /* \"#utility.yul\":9893:9907   */\n      lt\n        /* \"#utility.yul\":9885:10093   */\n      iszero\n      tag_175\n      jumpi\n        /* \"#utility.yul\":9978:9987   */\n      dup5\n        /* \"#utility.yul\":9973:9976   */\n      dup10\n        /* \"#utility.yul\":9969:9988   */\n      add\n        /* \"#utility.yul\":9963:9989   */\n      mload\n        /* \"#utility.yul\":9955:9961   */\n      dup3\n        /* \"#utility.yul\":9948:9990   */\n      sstore\n        /* \"#utility.yul\":10029:10030   */\n      0x01\n        /* \"#utility.yul\":10021:10027   */\n      dup3\n        /* \"#utility.yul\":10017:10031   */\n      add\n        /* \"#utility.yul\":10007:10031   */\n      swap2\n      pop\n        /* \"#utility.yul\":10076:10078   */\n      0x20\n        /* \"#utility.yul\":10065:10074   */\n      dup6\n        /* \"#utility.yul\":10061:10079   */\n      add\n        /* \"#utility.yul\":10048:10079   */\n      swap5\n      pop\n        /* \"#utility.yul\":9922:9926   */\n      0x20\n        /* \"#utility.yul\":9919:9920   */\n      dup2\n        /* \"#utility.yul\":9915:9927   */\n      add\n        /* \"#utility.yul\":9910:9927   */\n      swap1\n      pop\n        /* \"#utility.yul\":9885:10093   */\n      jump(tag_173)\n    tag_175:\n        /* \"#utility.yul\":10121:10127   */\n      dup7\n        /* \"#utility.yul\":10112:10119   */\n      dup4\n        /* \"#utility.yul\":10109:10128   */\n      lt\n        /* \"#utility.yul\":10106:10285   */\n      iszero\n      tag_176\n      jumpi\n        /* \"#utility.yul\":10179:10188   */\n      dup5\n        /* \"#utility.yul\":10174:10177   */\n      dup10\n        /* \"#utility.yul\":10170:10189   */\n      add\n        /* \"#utility.yul\":10164:10190   */\n      mload\n        /* \"#utility.yul\":10222:10270   */\n      tag_177\n        /* \"#utility.yul\":10264:10268   */\n      0x1f\n        /* \"#utility.yul\":10256:10262   */\n      dup10\n        /* \"#utility.yul\":10252:10269   */\n      and\n        /* \"#utility.yul\":10241:10250   */\n      dup3\n        /* \"#utility.yul\":10222:10270   */\n      tag_60\n      jump\t// in\n    tag_177:\n        /* \"#utility.yul\":10214:10220   */\n      dup4\n        /* \"#utility.yul\":10207:10271   */\n      sstore\n        /* \"#utility.yul\":10129:10285   */\n      pop\n        /* \"#utility.yul\":10106:10285   */\n    tag_176:\n        /* \"#utility.yul\":10331:10332   */\n      0x01\n        /* \"#utility.yul\":10327:10328   */\n      0x02\n        /* \"#utility.yul\":10319:10325   */\n      dup9\n        /* \"#utility.yul\":10315:10329   */\n      mul\n        /* \"#utility.yul\":10311:10333   */\n      add\n        /* \"#utility.yul\":10305:10309   */\n      dup9\n        /* \"#utility.yul\":10298:10334   */\n      sstore\n        /* \"#utility.yul\":9733:10344   */\n      pop\n      pop\n      pop\n        /* \"#utility.yul\":9696:10583   */\n    tag_168:\n      pop\n        /* \"#utility.yul\":9286:10589   */\n      pop\n      pop\n      pop\n        /* \"#utility.yul\":9194:10589   */\n      pop\n      pop\n      jump\t// out\n\n    auxdata: 0xa2646970667358221220ae3fbecbc4f64d5f18522d8addbbf0608acd9fa8f8a6c5cb807a95868fc5c4ca64736f6c63430008120033\n}\n",
				"bytecode": {
					"linkReferences": {},
					"object": "608060405234801561001057600080fd5b50336000806101000a81548173ffffffffffffffffffffffffffffffffffffffff021916908373ffffffffffffffffffffffffffffffffffffffff160217905550610806806100606000396000f3fe608060405234801561001057600080fd5b506004361061002b5760003560e01c80630743c33a14610030575b600080fd5b61004a600480360381019061004591906102f2565b610060565b6040516100579190610383565b60405180910390f35b60008060009054906101000a900473ffffffffffffffffffffffffffffffffffffffff1673ffffffffffffffffffffffffffffffffffffffff163373ffffffffffffffffffffffffffffffffffffffff16146100f1576040517f08c379a00000000000000000000000000000000000000000000000000000000081526004016100e890610421565b60405180910390fd5b600060026001600081548092919061010890610470565b919050558154811061011d5761011c6104b8565b5b906000526020600020906004020190508381600001908161013e91906106fe565b508281600101908161015091906106fe565b5060008160030160006101000a81548160ff02191690831515021790555060026001816001815401808255809150500390600052602060002090505060015491505092915050565b6000604051905090565b600080fd5b600080fd5b600080fd5b600080fd5b6000601f19601f8301169050919050565b7f4e487b7100000000000000000000000000000000000000000000000000000000600052604160045260246000fd5b6101ff826101b6565b810181811067ffffffffffffffff8211171561021e5761021d6101c7565b5b80604052505050565b6000610231610198565b905061023d82826101f6565b919050565b600067ffffffffffffffff82111561025d5761025c6101c7565b5b610266826101b6565b9050602081019050919050565b82818337600083830152505050565b600061029561029084610242565b610227565b9050828152602081018484840111156102b1576102b06101b1565b5b6102bc848285610273565b509392505050565b600082601f8301126102d9576102d86101ac565b5b81356102e9848260208601610282565b91505092915050565b60008060408385031215610309576103086101a2565b5b600083013567ffffffffffffffff811115610327576103266101a7565b5b610333858286016102c4565b925050602083013567ffffffffffffffff811115610354576103536101a7565b5b610360858286016102c4565b9150509250929050565b6000819050919050565b61037d8161036a565b82525050565b60006020820190506103986000830184610374565b92915050565b600082825260208201905092915050565b7f4f6e6c792061646d696e2063616e2063616c6c20746869732066756e6374696f60008201527f6e00000000000000000000000000000000000000000000000000000000000000602082015250565b600061040b60218361039e565b9150610416826103af565b604082019050919050565b6000602082019050818103600083015261043a816103fe565b9050919050565b7f4e487b7100000000000000000000000000000000000000000000000000000000600052601160045260246000fd5b600061047b8261036a565b91507fffffffffffffffffffffffffffffffffffffffffffffffffffffffffffffffff82036104ad576104ac610441565b5b600182019050919050565b7f4e487b7100000000000000000000000000000000000000000000000000000000600052603260045260246000fd5b600081519050919050565b7f4e487b7100000000000000000000000000000000000000000000000000000000600052602260045260246000fd5b6000600282049050600182168061053957607f821691505b60208210810361054c5761054b6104f2565b5b50919050565b60008190508160005260206000209050919050565b60006020601f8301049050919050565b600082821b905092915050565b6000600883026105b47fffffffffffffffffffffffffffffffffffffffffffffffffffffffffffffffff82610577565b6105be8683610577565b95508019841693508086168417925050509392505050565b6000819050919050565b60006105fb6105f66105f18461036a565b6105d6565b61036a565b9050919050565b6000819050919050565b610615836105e0565b61062961062182610602565b848454610584565b825550505050565b600090565b61063e610631565b61064981848461060c565b505050565b5b8181101561066d57610662600082610636565b60018101905061064f565b5050565b601f8211156106b25761068381610552565b61068c84610567565b8101602085101561069b578190505b6106af6106a785610567565b83018261064e565b50505b505050565b600082821c905092915050565b60006106d5600019846008026106b7565b1980831691505092915050565b60006106ee83836106c4565b9150826002028217905092915050565b610707826104e7565b67ffffffffffffffff8111156107205761071f6101c7565b5b61072a8254610521565b610735828285610671565b600060209050601f8311600181146107685760008415610756578287015190505b61076085826106e2565b8655506107c8565b601f19841661077686610552565b60005b8281101561079e57848901518255600182019150602085019450602081019050610779565b868310156107bb57848901516107b7601f8916826106c4565b8355505b6001600288020188555050505b50505050505056fea2646970667358221220ae3fbecbc4f64d5f18522d8addbbf0608acd9fa8f8a6c5cb807a95868fc5c4ca64736f6c63430008120033",
					"opcodes": "PUSH1 0x80 PUSH1 0x40 MSTORE CALLVALUE DUP1 ISZERO PUSH2 0x10 JUMPI PUSH1 0x0 DUP1 REVERT JUMPDEST POP CALLER PUSH1 0x0 DUP1 PUSH2 0x100 EXP DUP2 SLOAD DUP2 PUSH20 0xFFFFFFFFFFFFFFFFFFFFFFFFFFFFFFFFFFFFFFFF MUL NOT AND SWAP1 DUP4 PUSH20 0xFFFFFFFFFFFFFFFFFFFFFFFFFFFFFFFFFFFFFFFF AND MUL OR SWAP1 SSTORE POP PUSH2 0x806 DUP1 PUSH2 0x60 PUSH1 0x0 CODECOPY PUSH1 0x0 RETURN INVALID PUSH1 0x80 PUSH1 0x40 MSTORE CALLVALUE DUP1 ISZERO PUSH2 0x10 JUMPI PUSH1 0x0 DUP1 REVERT JUMPDEST POP PUSH1 0x4 CALLDATASIZE LT PUSH2 0x2B JUMPI PUSH1 0x0 CALLDATALOAD PUSH1 0xE0 SHR DUP1 PUSH4 0x743C33A EQ PUSH2 0x30 JUMPI JUMPDEST PUSH1 0x0 DUP1 REVERT JUMPDEST PUSH2 0x4A PUSH1 0x4 DUP1 CALLDATASIZE SUB DUP2 ADD SWAP1 PUSH2 0x45 SWAP2 SWAP1 PUSH2 0x2F2 JUMP JUMPDEST PUSH2 0x60 JUMP JUMPDEST PUSH1 0x40 MLOAD PUSH2 0x57 SWAP2 SWAP1 PUSH2 0x383 JUMP JUMPDEST PUSH1 0x40 MLOAD DUP1 SWAP2 SUB SWAP1 RETURN JUMPDEST PUSH1 0x0 DUP1 PUSH1 0x0 SWAP1 SLOAD SWAP1 PUSH2 0x100 EXP SWAP1 DIV PUSH20 0xFFFFFFFFFFFFFFFFFFFFFFFFFFFFFFFFFFFFFFFF AND PUSH20 0xFFFFFFFFFFFFFFFFFFFFFFFFFFFFFFFFFFFFFFFF AND CALLER PUSH20 0xFFFFFFFFFFFFFFFFFFFFFFFFFFFFFFFFFFFFFFFF AND EQ PUSH2 0xF1 JUMPI PUSH1 0x40 MLOAD PUSH32 0x8C379A000000000000000000000000000000000000000000000000000000000 DUP2 MSTORE PUSH1 0x4 ADD PUSH2 0xE8 SWAP1 PUSH2 0x421 JUMP JUMPDEST PUSH1 0x40 MLOAD DUP1 SWAP2 SUB SWAP1 REVERT JUMPDEST PUSH1 0x0 PUSH1 0x2 PUSH1 0x1 PUSH1 0x0 DUP2 SLOAD DUP1 SWAP3 SWAP2 SWAP1 PUSH2 0x108 SWAP1 PUSH2 0x470 JUMP JUMPDEST SWAP2 SWAP1 POP SSTORE DUP2 SLOAD DUP2 LT PUSH2 0x11D JUMPI PUSH2 0x11C PUSH2 0x4B8 JUMP JUMPDEST JUMPDEST SWAP1 PUSH1 0x0 MSTORE PUSH1 0x20 PUSH1 0x0 KECCAK256 SWAP1 PUSH1 0x4 MUL ADD SWAP1 POP DUP4 DUP2 PUSH1 0x0 ADD SWAP1 DUP2 PUSH2 0x13E SWAP2 SWAP1 PUSH2 0x6FE JUMP JUMPDEST POP DUP3 DUP2 PUSH1 0x1 ADD SWAP1 DUP2 PUSH2 0x150 SWAP2 SWAP1 PUSH2 0x6FE JUMP JUMPDEST POP PUSH1 0x0 DUP2 PUSH1 0x3 ADD PUSH1 0x0 PUSH2 0x100 EXP DUP2 SLOAD DUP2 PUSH1 0xFF MUL NOT AND SWAP1 DUP4 ISZERO ISZERO MUL OR SWAP1 SSTORE POP PUSH1 0x2 PUSH1 0x1 DUP2 PUSH1 0x1 DUP2 SLOAD ADD DUP1 DUP3 SSTORE DUP1 SWAP2 POP POP SUB SWAP1 PUSH1 0x0 MSTORE PUSH1 0x20 PUSH1 0x0 KECCAK256 SWAP1 POP POP PUSH1 0x1 SLOAD SWAP2 POP POP SWAP3 SWAP2 POP POP JUMP JUMPDEST PUSH1 0x0 PUSH1 0x40 MLOAD SWAP1 POP SWAP1 JUMP JUMPDEST PUSH1 0x0 DUP1 REVERT JUMPDEST PUSH1 0x0 DUP1 REVERT JUMPDEST PUSH1 0x0 DUP1 REVERT JUMPDEST PUSH1 0x0 DUP1 REVERT JUMPDEST PUSH1 0x0 PUSH1 0x1F NOT PUSH1 0x1F DUP4 ADD AND SWAP1 POP SWAP2 SWAP1 POP JUMP JUMPDEST PUSH32 0x4E487B7100000000000000000000000000000000000000000000000000000000 PUSH1 0x0 MSTORE PUSH1 0x41 PUSH1 0x4 MSTORE PUSH1 0x24 PUSH1 0x0 REVERT JUMPDEST PUSH2 0x1FF DUP3 PUSH2 0x1B6 JUMP JUMPDEST DUP2 ADD DUP2 DUP2 LT PUSH8 0xFFFFFFFFFFFFFFFF DUP3 GT OR ISZERO PUSH2 0x21E JUMPI PUSH2 0x21D PUSH2 0x1C7 JUMP JUMPDEST JUMPDEST DUP1 PUSH1 0x40 MSTORE POP POP POP JUMP JUMPDEST PUSH1 0x0 PUSH2 0x231 PUSH2 0x198 JUMP JUMPDEST SWAP1 POP PUSH2 0x23D DUP3 DUP3 PUSH2 0x1F6 JUMP JUMPDEST SWAP2 SWAP1 POP JUMP JUMPDEST PUSH1 0x0 PUSH8 0xFFFFFFFFFFFFFFFF DUP3 GT ISZERO PUSH2 0x25D JUMPI PUSH2 0x25C PUSH2 0x1C7 JUMP JUMPDEST JUMPDEST PUSH2 0x266 DUP3 PUSH2 0x1B6 JUMP JUMPDEST SWAP1 POP PUSH1 0x20 DUP2 ADD SWAP1 POP SWAP2 SWAP1 POP JUMP JUMPDEST DUP3 DUP2 DUP4 CALLDATACOPY PUSH1 0x0 DUP4 DUP4 ADD MSTORE POP POP POP JUMP JUMPDEST PUSH1 0x0 PUSH2 0x295 PUSH2 0x290 DUP5 PUSH2 0x242 JUMP JUMPDEST PUSH2 0x227 JUMP JUMPDEST SWAP1 POP DUP3 DUP2 MSTORE PUSH1 0x20 DUP2 ADD DUP5 DUP5 DUP5 ADD GT ISZERO PUSH2 0x2B1 JUMPI PUSH2 0x2B0 PUSH2 0x1B1 JUMP JUMPDEST JUMPDEST PUSH2 0x2BC DUP5 DUP3 DUP6 PUSH2 0x273 JUMP JUMPDEST POP SWAP4 SWAP3 POP POP POP JUMP JUMPDEST PUSH1 0x0 DUP3 PUSH1 0x1F DUP4 ADD SLT PUSH2 0x2D9 JUMPI PUSH2 0x2D8 PUSH2 0x1AC JUMP JUMPDEST JUMPDEST DUP2 CALLDATALOAD PUSH2 0x2E9 DUP5 DUP3 PUSH1 0x20 DUP7 ADD PUSH2 0x282 JUMP JUMPDEST SWAP2 POP POP SWAP3 SWAP2 POP POP JUMP JUMPDEST PUSH1 0x0 DUP1 PUSH1 0x40 DUP4 DUP6 SUB SLT ISZERO PUSH2 0x309 JUMPI PUSH2 0x308 PUSH2 0x1A2 JUMP JUMPDEST JUMPDEST PUSH1 0x0 DUP4 ADD CALLDATALOAD PUSH8 0xFFFFFFFFFFFFFFFF DUP2 GT ISZERO PUSH2 0x327 JUMPI PUSH2 0x326 PUSH2 0x1A7 JUMP JUMPDEST JUMPDEST PUSH2 0x333 DUP6 DUP3 DUP7 ADD PUSH2 0x2C4 JUMP JUMPDEST SWAP3 POP POP PUSH1 0x20 DUP4 ADD CALLDATALOAD PUSH8 0xFFFFFFFFFFFFFFFF DUP2 GT ISZERO PUSH2 0x354 JUMPI PUSH2 0x353 PUSH2 0x1A7 JUMP JUMPDEST JUMPDEST PUSH2 0x360 DUP6 DUP3 DUP7 ADD PUSH2 0x2C4 JUMP JUMPDEST SWAP2 POP POP SWAP3 POP SWAP3 SWAP1 POP JUMP JUMPDEST PUSH1 0x0 DUP2 SWAP1 POP SWAP2 SWAP1 POP JUMP JUMPDEST PUSH2 0x37D DUP2 PUSH2 0x36A JUMP JUMPDEST DUP3 MSTORE POP POP JUMP JUMPDEST PUSH1 0x0 PUSH1 0x20 DUP3 ADD SWAP1 POP PUSH2 0x398 PUSH1 0x0 DUP4 ADD DUP5 PUSH2 0x374 JUMP JUMPDEST SWAP3 SWAP2 POP POP JUMP JUMPDEST PUSH1 0x0 DUP3 DUP3 MSTORE PUSH1 0x20 DUP3 ADD SWAP1 POP SWAP3 SWAP2 POP POP JUMP JUMPDEST PUSH32 0x4F6E6C792061646D696E2063616E2063616C6C20746869732066756E6374696F PUSH1 0x0 DUP3 ADD MSTORE PUSH32 0x6E00000000000000000000000000000000000000000000000000000000000000 PUSH1 0x20 DUP3 ADD MSTORE POP JUMP JUMPDEST PUSH1 0x0 PUSH2 0x40B PUSH1 0x21 DUP4 PUSH2 0x39E JUMP JUMPDEST SWAP2 POP PUSH2 0x416 DUP3 PUSH2 0x3AF JUMP JUMPDEST PUSH1 0x40 DUP3 ADD SWAP1 POP SWAP2 SWAP1 POP JUMP JUMPDEST PUSH1 0x0 PUSH1 0x20 DUP3 ADD SWAP1 POP DUP2 DUP2 SUB PUSH1 0x0 DUP4 ADD MSTORE PUSH2 0x43A DUP2 PUSH2 0x3FE JUMP JUMPDEST SWAP1 POP SWAP2 SWAP1 POP JUMP JUMPDEST PUSH32 0x4E487B7100000000000000000000000000000000000000000000000000000000 PUSH1 0x0 MSTORE PUSH1 0x11 PUSH1 0x4 MSTORE PUSH1 0x24 PUSH1 0x0 REVERT JUMPDEST PUSH1 0x0 PUSH2 0x47B DUP3 PUSH2 0x36A JUMP JUMPDEST SWAP2 POP PUSH32 0xFFFFFFFFFFFFFFFFFFFFFFFFFFFFFFFFFFFFFFFFFFFFFFFFFFFFFFFFFFFFFFFF DUP3 SUB PUSH2 0x4AD JUMPI PUSH2 0x4AC PUSH2 0x441 JUMP JUMPDEST JUMPDEST PUSH1 0x1 DUP3 ADD SWAP1 POP SWAP2 SWAP1 POP JUMP JUMPDEST PUSH32 0x4E487B7100000000000000000000000000000000000000000000000000000000 PUSH1 0x0 MSTORE PUSH1 0x32 PUSH1 0x4 MSTORE PUSH1 0x24 PUSH1 0x0 REVERT JUMPDEST PUSH1 0x0 DUP2 MLOAD SWAP1 POP SWAP2 SWAP1 POP JUMP JUMPDEST PUSH32 0x4E487B7100000000000000000000000000000000000000000000000000000000 PUSH1 0x0 MSTORE PUSH1 0x22 PUSH1 0x4 MSTORE PUSH1 0x24 PUSH1 0x0 REVERT JUMPDEST PUSH1 0x0 PUSH1 0x2 DUP3 DIV SWAP1 POP PUSH1 0x1 DUP3 AND DUP1 PUSH2 0x539 JUMPI PUSH1 0x7F DUP3 AND SWAP2 POP JUMPDEST PUSH1 0x20 DUP3 LT DUP2 SUB PUSH2 0x54C JUMPI PUSH2 0x54B PUSH2 0x4F2 JUMP JUMPDEST JUMPDEST POP SWAP2 SWAP1 POP JUMP JUMPDEST PUSH1 0x0 DUP2 SWAP1 POP DUP2 PUSH1 0x0 MSTORE PUSH1 0x20 PUSH1 0x0 KECCAK256 SWAP1 POP SWAP2 SWAP1 POP JUMP JUMPDEST PUSH1 0x0 PUSH1 0x20 PUSH1 0x1F DUP4 ADD DIV SWAP1 POP SWAP2 SWAP1 POP JUMP JUMPDEST PUSH1 0x0 DUP3 DUP3 SHL SWAP1 POP SWAP3 SWAP2 POP POP JUMP JUMPDEST PUSH1 0x0 PUSH1 0x8 DUP4 MUL PUSH2 0x5B4 PUSH32 0xFFFFFFFFFFFFFFFFFFFFFFFFFFFFFFFFFFFFFFFFFFFFFFFFFFFFFFFFFFFFFFFF DUP3 PUSH2 0x577 JUMP JUMPDEST PUSH2 0x5BE DUP7 DUP4 PUSH2 0x577 JUMP JUMPDEST SWAP6 POP DUP1 NOT DUP5 AND SWAP4 POP DUP1 DUP7 AND DUP5 OR SWAP3 POP POP POP SWAP4 SWAP3 POP POP POP JUMP JUMPDEST PUSH1 0x0 DUP2 SWAP1 POP SWAP2 SWAP1 POP JUMP JUMPDEST PUSH1 0x0 PUSH2 0x5FB PUSH2 0x5F6 PUSH2 0x5F1 DUP5 PUSH2 0x36A JUMP JUMPDEST PUSH2 0x5D6 JUMP JUMPDEST PUSH2 0x36A JUMP JUMPDEST SWAP1 POP SWAP2 SWAP1 POP JUMP JUMPDEST PUSH1 0x0 DUP2 SWAP1 POP SWAP2 SWAP1 POP JUMP JUMPDEST PUSH2 0x615 DUP4 PUSH2 0x5E0 JUMP JUMPDEST PUSH2 0x629 PUSH2 0x621 DUP3 PUSH2 0x602 JUMP JUMPDEST DUP5 DUP5 SLOAD PUSH2 0x584 JUMP JUMPDEST DUP3 SSTORE POP POP POP POP JUMP JUMPDEST PUSH1 0x0 SWAP1 JUMP JUMPDEST PUSH2 0x63E PUSH2 0x631 JUMP JUMPDEST PUSH2 0x649 DUP2 DUP5 DUP5 PUSH2 0x60C JUMP JUMPDEST POP POP POP JUMP JUMPDEST JUMPDEST DUP2 DUP2 LT ISZERO PUSH2 0x66D JUMPI PUSH2 0x662 PUSH1 0x0 DUP3 PUSH2 0x636 JUMP JUMPDEST PUSH1 0x1 DUP2 ADD SWAP1 POP PUSH2 0x64F JUMP JUMPDEST POP POP JUMP JUMPDEST PUSH1 0x1F DUP3 GT ISZERO PUSH2 0x6B2 JUMPI PUSH2 0x683 DUP2 PUSH2 0x552 JUMP JUMPDEST PUSH2 0x68C DUP5 PUSH2 0x567 JUMP JUMPDEST DUP2 ADD PUSH1 0x20 DUP6 LT ISZERO PUSH2 0x69B JUMPI DUP2 SWAP1 POP JUMPDEST PUSH2 0x6AF PUSH2 0x6A7 DUP6 PUSH2 0x567 JUMP JUMPDEST DUP4 ADD DUP3 PUSH2 0x64E JUMP JUMPDEST POP POP JUMPDEST POP POP POP JUMP JUMPDEST PUSH1 0x0 DUP3 DUP3 SHR SWAP1 POP SWAP3 SWAP2 POP POP JUMP JUMPDEST PUSH1 0x0 PUSH2 0x6D5 PUSH1 0x0 NOT DUP5 PUSH1 0x8 MUL PUSH2 0x6B7 JUMP JUMPDEST NOT DUP1 DUP4 AND SWAP2 POP POP SWAP3 SWAP2 POP POP JUMP JUMPDEST PUSH1 0x0 PUSH2 0x6EE DUP4 DUP4 PUSH2 0x6C4 JUMP JUMPDEST SWAP2 POP DUP3 PUSH1 0x2 MUL DUP3 OR SWAP1 POP SWAP3 SWAP2 POP POP JUMP JUMPDEST PUSH2 0x707 DUP3 PUSH2 0x4E7 JUMP JUMPDEST PUSH8 0xFFFFFFFFFFFFFFFF DUP2 GT ISZERO PUSH2 0x720 JUMPI PUSH2 0x71F PUSH2 0x1C7 JUMP JUMPDEST JUMPDEST PUSH2 0x72A DUP3 SLOAD PUSH2 0x521 JUMP JUMPDEST PUSH2 0x735 DUP3 DUP3 DUP6 PUSH2 0x671 JUMP JUMPDEST PUSH1 0x0 PUSH1 0x20 SWAP1 POP PUSH1 0x1F DUP4 GT PUSH1 0x1 DUP2 EQ PUSH2 0x768 JUMPI PUSH1 0x0 DUP5 ISZERO PUSH2 0x756 JUMPI DUP3 DUP8 ADD MLOAD SWAP1 POP JUMPDEST PUSH2 0x760 DUP6 DUP3 PUSH2 0x6E2 JUMP JUMPDEST DUP7 SSTORE POP PUSH2 0x7C8 JUMP JUMPDEST PUSH1 0x1F NOT DUP5 AND PUSH2 0x776 DUP7 PUSH2 0x552 JUMP JUMPDEST PUSH1 0x0 JUMPDEST DUP3 DUP2 LT ISZERO PUSH2 0x79E JUMPI DUP5 DUP10 ADD MLOAD DUP3 SSTORE PUSH1 0x1 DUP3 ADD SWAP2 POP PUSH1 0x20 DUP6 ADD SWAP5 POP PUSH1 0x20 DUP2 ADD SWAP1 POP PUSH2 0x779 JUMP JUMPDEST DUP7 DUP4 LT ISZERO PUSH2 0x7BB JUMPI DUP5 DUP10 ADD MLOAD PUSH2 0x7B7 PUSH1 0x1F DUP10 AND DUP3 PUSH2 0x6C4 JUMP JUMPDEST DUP4 SSTORE POP JUMPDEST PUSH1 0x1 PUSH1 0x2 DUP9 MUL ADD DUP9 SSTORE POP POP POP JUMPDEST POP POP POP POP POP POP JUMP INVALID LOG2 PUSH5 0x6970667358 0x22 SLT KECCAK256 0xAE EXTCODEHASH 0xBE 0xCB 0xC4 0xF6 0x4D 0x5F XOR MSTORE 0x2D DUP11 0xDD 0xBB CREATE PUSH1 0x8A 0xCD SWAP16 0xA8 0xF8 0xA6 0xC5 0xCB DUP1 PUSH27 0x95868FC5C4CA64736F6C6343000812003300000000000000000000 "
				},
				"gasEstimates": {
					"creation": {
						"codeDepositCost": "410800",
						"executionCost": "24715",
						"totalCost": "435515"
					},
					"external": {
						"createTopic(string,string)": "infinite"
					}
				},
				"methodIdentifiers": {
					"createTopic(string,string)": "0743c33a"
				}
			},
			"storageLayout": {
				"storage": [
					{
						"astId": 4,
						"contract": "contracts/VotingSystem.sol:VotingSystem",
						"label": "_admin",
						"offset": 0,
						"slot": "0",
						"type": "t_address"
					},
					{
						"astId": 6,
						"contract": "contracts/VotingSystem.sol:VotingSystem",
						"label": "numVotings",
						"offset": 0,
						"slot": "1",
						"type": "t_uint256"
					},
					{
						"astId": 10,
						"contract": "contracts/VotingSystem.sol:VotingSystem",
						"label": "_votings",
						"offset": 0,
						"slot": "2",
						"type": "t_array(t_struct(Voting)25_storage)dyn_storage"
					},
					{
						"astId": 14,
						"contract": "contracts/VotingSystem.sol:VotingSystem",
						"label": "_scores",
						"offset": 0,
						"slot": "3",
						"type": "t_mapping(t_address,t_uint256)"
					}
				],
				"types": {
					"t_address": {
						"encoding": "inplace",
						"label": "address",
						"numberOfBytes": "20"
					},
					"t_array(t_struct(Voting)25_storage)dyn_storage": {
						"base": "t_struct(Voting)25_storage",
						"encoding": "dynamic_array",
						"label": "struct VotingSystem.Voting[]",
						"numberOfBytes": "32"
					},
					"t_bool": {
						"encoding": "inplace",
						"label": "bool",
						"numberOfBytes": "1"
					},
					"t_mapping(t_address,t_bool)": {
						"encoding": "mapping",
						"key": "t_address",
						"label": "mapping(address => bool)",
						"numberOfBytes": "32",
						"value": "t_bool"
					},
					"t_mapping(t_address,t_uint256)": {
						"encoding": "mapping",
						"key": "t_address",
						"label": "mapping(address => uint256)",
						"numberOfBytes": "32",
						"value": "t_uint256"
					},
					"t_string_storage": {
						"encoding": "bytes",
						"label": "string",
						"numberOfBytes": "32"
					},
					"t_struct(Voting)25_storage": {
						"encoding": "inplace",
						"label": "struct VotingSystem.Voting",
						"members": [
							{
								"astId": 16,
								"contract": "contracts/VotingSystem.sol:VotingSystem",
								"label": "topic",
								"offset": 0,
								"slot": "0",
								"type": "t_string_storage"
							},
							{
								"astId": 18,
								"contract": "contracts/VotingSystem.sol:VotingSystem",
								"label": "description",
								"offset": 0,
								"slot": "1",
								"type": "t_string_storage"
							},
							{
								"astId": 22,
								"contract": "contracts/VotingSystem.sol:VotingSystem",
								"label": "votingResult",
								"offset": 0,
								"slot": "2",
								"type": "t_mapping(t_address,t_bool)"
							},
							{
								"astId": 24,
								"contract": "contracts/VotingSystem.sol:VotingSystem",
								"label": "isOpen",
								"offset": 0,
								"slot": "3",
								"type": "t_bool"
							}
						],
						"numberOfBytes": "128"
					},
					"t_uint256": {
						"encoding": "inplace",
						"label": "uint256",
						"numberOfBytes": "32"
					}
				}
			},
			"userdoc": {
				"kind": "user",
				"methods": {},
				"version": 1
			}
		}
	}
}